:100000000C9478000C948C000C948C000C948C0054
:100010000C948C000C948C000C948C000C948C0030
:100020000C948C000C948C000C948C000C948C0020
:100030000C948C000C948C000C948C000C948C0010
:100040000C948C000C945D010C948C000C948C002E
:100050000C948C000C948C000C948C000C948C00F0
:100060000C948C000C948C000C948C000C948C00E0
:100070000C948C000C948C000C948C000C948C00D0
:100080000C948C000C948C000C948C000C948C00C0
:100090000C948C000C948C000C948C000C948C00B0
:1000A0000C948C000C948C000C948C000C948C00A0
:1000B0000C948C000C948C000C948C000C948C0090
:1000C0000C948C000C948C000C948C000C948C0080
:1000D0000C948C000C948C000C948C000C948C0070
:1000E0000C948C000C9493000C948E000C94900053
:1000F00011241FBECFEFD1E2DEBFCDBF00E00CBFA9
:1001000026E0A0E0B2E001C01D92AE32B207E1F7F6
:100110000E94F9020C9409030C94000015B8FECF5C
:1001200080E885B9FECF8091040290910502892B69
:1001300069F0F894E0910802F0910902EA5FFE4F3D
:1001400083E090E0918380830C945C020895F8949E
:1001500010928000E1E8F0E010828FE79EE3909338
:10016000890080938800808188608083808181609D
:100170008083EFE6F0E08081826080837894089548
:10018000FC01329620E031E0DF01A9011D924150CF
:100190005040E1F7E150FF4F23E930E020833197F1
:1001A0003083319710823197608331977083319714
:1001B00010829C0127523F4FDC012D933C933896CF
:1001C000608371833296118210828E5F9E4F21E090
:1001D00030E0FC01318320830895ECE0F3E030E06F
:1001E00020E040815181452B39F02F5F3F4FE85F80
:1001F000FE4F24303105A9F74091020250910302CD
:100200004F5F5F4F509303024093020268E071E03A
:10021000269FA001279F500D369F500D1124BC0131
:10022000CA01865F9D4F0C94C0000E94B102C1E0DC
:10023000D0E0E0910802F0910902DF01AA5FBE4F11
:1002400011961C921E928081918190932B0680932F
:100250002A060E940702E0910802F09109028091AB
:100260002A0690912B0691838083DF01AA5FBE4FFF
:100270008D919C918130910559F0C0F082309105AB
:10028000A9F00397B1F6EE5FFE4F1182108212C003
:10029000EC5FFE4F80819181209102023091030238
:1002A0002430310531F20E94ED00C3CFEE5FFE4FE6
:1002B000D183C0830E94B102BCCF1F920F920FB6B0
:1002C0000F9211240BB60F922F933F934F935F938E
:1002D0006F937F938F939F93AF93BF93EF93FF930E
:1002E0008091040290910502892B79F0F894E091B5
:1002F0000802F0910902EE5FFE4F81E090E09183E9
:1003000080830E945C020E941501FF91EF91BF91D2
:10031000AF919F918F917F916F915F914F913F919D
:100320002F910F900BBE0F900FBE0F901F9018953E
:10033000109203021092020210920502109204021F
:100340001092070210920602EAE0F2E088E091E0E3
:10035000DF019C011D9221503040E1F7DF01AE5FCB
:10036000BE4F1D921C92E85FFE4F36E0EA32F30763
:1003700079F708958091040290910502892B79F410
:100380008091020290910302892B49F0F89481E058
:1003900090E090930502809304020E941501089555
:1003A0002091040230910502232B99F0F8942091BA
:1003B000080230910902F901EA5FFE4F41E050E086
:1003C000518340832C5F3E4FF901918380830C94CD
:1003D0005C0220910202309103022430310511F0B9
:1003E0000C94ED0008958091040290910502892BF0
:1003F00069F0F894E0910802F0910902EA5FFE4F7B
:1004000082E090E0918380830C945C0208950F92C7
:100410001F922F923F924F925F926F927F928F9294
:100420009F92AF92BF92CF92DF92EF92FF920F9383
:100430001F932F933F934F935F936F937F938F936C
:100440009F93AF93BF93CF93DF93EF93FF93FCB74B
:10045000FF93FFB7FF93EDB7FEB7E0932C06F09341
:100460002D06E0912A06F0912B06EDBFFEBFFF910D
:10047000FFBFFF91FCBFFF91EF91DF91CF91BF9143
:10048000AF919F918F917F916F915F914F913F912C
:100490002F911F910F91FF90EF90DF90CF90BF9021
:1004A000AF909F908F907F906F905F904F903F9014
:1004B0002F901F900F9018950F921F922F923F929E
:1004C0004F925F926F927F928F929F92AF92BF9264
:1004D000CF92DF92EF92FF920F931F932F933F9350
:1004E0004F935F936F937F938F939F93AF93BF933C
:1004F000CF93DF93EF93FF93FCB7FF93FFB7FF9387
:10050000EDB7FEB7E0932A06F0932B06E0912C0698
:10051000F0912D06EDBFFEBFFF91FFBFFF91FCBF25
:10052000FF91EF91DF91CF91BF91AF919F918F910B
:100530007F916F915F914F913F912F911F910F91FB
:10054000FF90EF90DF90CF90BF90AF909F908F90F3
:100550007F906F905F904F903F902F901F900F90E3
:10056000089528E031E08091060290910702829F71
:10057000F001839FF00D929FF00D1124E45FFC4F7A
:1005800080819181019749F580910602909107023F
:10059000829FF001839FF00D929FF00D1124E65F82
:1005A000FD4FF0930902E0930802808191819093BE
:1005B0002B0680932A06EE5FFE4F82E090E0918347
:1005C000808380910602909107020196837099279B
:1005D00090930702809306020895809106029091FD
:1005E0000702019683709927909307028093060271
:1005F000BACF0E94980180E990E00E94D0018EE875
:1006000090E00E94D00180EC84B90E94A7000C9475
:06061000BA01F894FFCFCF
:00000001FF
